{
  "_format": "hh-sol-artifact-1",
  "contractName": "Store",
  "sourceName": "contracts/Store.sol",
  "abi": [
    {
      "anonymous": false,
      "inputs": [
        {
          "indexed": true,
          "internalType": "address",
          "name": "previousOwner",
          "type": "address"
        },
        {
          "indexed": true,
          "internalType": "address",
          "name": "newOwner",
          "type": "address"
        }
      ],
      "name": "OwnershipTransferred",
      "type": "event"
    },
    {
      "anonymous": false,
      "inputs": [
        {
          "indexed": false,
          "internalType": "uint256",
          "name": "id",
          "type": "uint256"
        },
        {
          "indexed": false,
          "internalType": "string",
          "name": "name",
          "type": "string"
        },
        {
          "indexed": false,
          "internalType": "uint256",
          "name": "quantity",
          "type": "uint256"
        }
      ],
      "name": "ProductAdded",
      "type": "event"
    },
    {
      "anonymous": false,
      "inputs": [
        {
          "indexed": false,
          "internalType": "uint256",
          "name": "id",
          "type": "uint256"
        },
        {
          "indexed": false,
          "internalType": "address",
          "name": "buyer",
          "type": "address"
        }
      ],
      "name": "ProductBought",
      "type": "event"
    },
    {
      "anonymous": false,
      "inputs": [
        {
          "indexed": false,
          "internalType": "uint256",
          "name": "id",
          "type": "uint256"
        }
      ],
      "name": "ProductRefund",
      "type": "event"
    },
    {
      "anonymous": false,
      "inputs": [
        {
          "indexed": false,
          "internalType": "uint256",
          "name": "id",
          "type": "uint256"
        },
        {
          "indexed": false,
          "internalType": "string",
          "name": "name",
          "type": "string"
        },
        {
          "indexed": false,
          "internalType": "uint256",
          "name": "quantity",
          "type": "uint256"
        }
      ],
      "name": "ProductUpdated",
      "type": "event"
    },
    {
      "inputs": [
        {
          "internalType": "string",
          "name": "name",
          "type": "string"
        },
        {
          "internalType": "uint16",
          "name": "quantity",
          "type": "uint16"
        }
      ],
      "name": "addProduct",
      "outputs": [],
      "stateMutability": "nonpayable",
      "type": "function"
    },
    {
      "inputs": [
        {
          "internalType": "uint256",
          "name": "id",
          "type": "uint256"
        }
      ],
      "name": "buyProduct",
      "outputs": [],
      "stateMutability": "nonpayable",
      "type": "function"
    },
    {
      "inputs": [],
      "name": "getAllProducts",
      "outputs": [
        {
          "components": [
            {
              "internalType": "string",
              "name": "name",
              "type": "string"
            },
            {
              "internalType": "uint16",
              "name": "quantity",
              "type": "uint16"
            }
          ],
          "internalType": "struct StoreBase.Product[]",
          "name": "",
          "type": "tuple[]"
        }
      ],
      "stateMutability": "view",
      "type": "function"
    },
    {
      "inputs": [
        {
          "internalType": "uint256",
          "name": "id",
          "type": "uint256"
        }
      ],
      "name": "getProductBuyersById",
      "outputs": [
        {
          "internalType": "address[]",
          "name": "",
          "type": "address[]"
        }
      ],
      "stateMutability": "view",
      "type": "function"
    },
    {
      "inputs": [
        {
          "internalType": "uint256",
          "name": "id",
          "type": "uint256"
        }
      ],
      "name": "getProductById",
      "outputs": [
        {
          "components": [
            {
              "internalType": "string",
              "name": "name",
              "type": "string"
            },
            {
              "internalType": "uint16",
              "name": "quantity",
              "type": "uint16"
            }
          ],
          "internalType": "struct StoreBase.Product",
          "name": "",
          "type": "tuple"
        }
      ],
      "stateMutability": "view",
      "type": "function"
    },
    {
      "inputs": [
        {
          "internalType": "string",
          "name": "name",
          "type": "string"
        }
      ],
      "name": "getProductByName",
      "outputs": [
        {
          "components": [
            {
              "internalType": "string",
              "name": "name",
              "type": "string"
            },
            {
              "internalType": "uint16",
              "name": "quantity",
              "type": "uint16"
            }
          ],
          "internalType": "struct StoreBase.Product",
          "name": "",
          "type": "tuple"
        }
      ],
      "stateMutability": "view",
      "type": "function"
    },
    {
      "inputs": [],
      "name": "getRefundPolicyNumber",
      "outputs": [
        {
          "internalType": "uint8",
          "name": "",
          "type": "uint8"
        }
      ],
      "stateMutability": "view",
      "type": "function"
    },
    {
      "inputs": [],
      "name": "owner",
      "outputs": [
        {
          "internalType": "address",
          "name": "",
          "type": "address"
        }
      ],
      "stateMutability": "view",
      "type": "function"
    },
    {
      "inputs": [
        {
          "internalType": "uint256",
          "name": "",
          "type": "uint256"
        }
      ],
      "name": "products",
      "outputs": [
        {
          "internalType": "string",
          "name": "name",
          "type": "string"
        },
        {
          "internalType": "uint16",
          "name": "quantity",
          "type": "uint16"
        }
      ],
      "stateMutability": "view",
      "type": "function"
    },
    {
      "inputs": [
        {
          "internalType": "uint256",
          "name": "id",
          "type": "uint256"
        }
      ],
      "name": "refundProduct",
      "outputs": [],
      "stateMutability": "nonpayable",
      "type": "function"
    },
    {
      "inputs": [],
      "name": "renounceOwnership",
      "outputs": [],
      "stateMutability": "nonpayable",
      "type": "function"
    },
    {
      "inputs": [
        {
          "internalType": "uint8",
          "name": "blockNumber",
          "type": "uint8"
        }
      ],
      "name": "setRefundPolicyNumber",
      "outputs": [],
      "stateMutability": "nonpayable",
      "type": "function"
    },
    {
      "inputs": [
        {
          "internalType": "address",
          "name": "newOwner",
          "type": "address"
        }
      ],
      "name": "transferOwnership",
      "outputs": [],
      "stateMutability": "nonpayable",
      "type": "function"
    },
    {
      "inputs": [
        {
          "internalType": "uint256",
          "name": "id",
          "type": "uint256"
        },
        {
          "internalType": "uint16",
          "name": "quantity",
          "type": "uint16"
        }
      ],
      "name": "updateProductQuantity",
      "outputs": [],
      "stateMutability": "nonpayable",
      "type": "function"
    }
  ],
  "bytecode": "0x60806040526064600060146101000a81548160ff021916908360ff1602179055503480156200002d57600080fd5b506200004e620000426200005460201b60201c565b6200005c60201b60201c565b62000120565b600033905090565b60008060009054906101000a900473ffffffffffffffffffffffffffffffffffffffff169050816000806101000a81548173ffffffffffffffffffffffffffffffffffffffff021916908373ffffffffffffffffffffffffffffffffffffffff1602179055508173ffffffffffffffffffffffffffffffffffffffff168173ffffffffffffffffffffffffffffffffffffffff167f8be0079c531659141344cd1fd0a4f28419497f9722a3daafe3b4186f6b6457e060405160405180910390a35050565b61263980620001306000396000f3fe608060405234801561001057600080fd5b50600436106100ea5760003560e01c80638642269e1161008c578063d4290f8311610066578063d4290f8314610224578063ea25877214610254578063f2fde38b14610284578063fb8fc184146102a0576100ea565b80638642269e146101ce5780638da5cb5b146101ea578063c750fc5414610208576100ea565b80636a1d1959116100c85780636a1d195914610159578063715018a6146101775780637274d680146101815780637acc0b201461019d576100ea565b806302ee3a52146100ef5780633f70c2b41461010d57806343b726481461013d575b600080fd5b6100f76102bc565b6040516101049190611685565b60405180910390f35b610127600480360381019061012291906116f1565b6103cd565b604051610134919061175b565b60405180910390f35b610157600480360381019061015291906118de565b61050c565b005b6101616106dd565b60405161016e9190611956565b60405180910390f35b61017f6106f3565b005b61019b600480360381019061019691906116f1565b610707565b005b6101b760048036038101906101b291906116f1565b610800565b6040516101c59291906119ca565b60405180910390f35b6101e860048036038101906101e391906116f1565b6108ca565b005b6101f2610a91565b6040516101ff9190611a3b565b60405180910390f35b610222600480360381019061021d9190611a56565b610aba565b005b61023e60048036038101906102399190611a96565b610b92565b60405161024b919061175b565b60405180910390f35b61026e600480360381019061026991906116f1565b610d62565b60405161027b9190611b9d565b60405180910390f35b61029e60048036038101906102999190611beb565b610e4e565b005b6102ba60048036038101906102b59190611c44565b610ed1565b005b60606001805480602002602001604051908101604052809291908181526020016000905b828210156103c4578382906000526020600020906002020160405180604001604052908160008201805461031390611ca0565b80601f016020809104026020016040519081016040528092919081815260200182805461033f90611ca0565b801561038c5780601f106103615761010080835404028352916020019161038c565b820191906000526020600020905b81548152906001019060200180831161036f57829003601f168201915b505050505081526020016001820160009054906101000a900461ffff1661ffff1661ffff1681525050815260200190600101906102e0565b50505050905090565b6103d56114bb565b8160018054905080821061041e576040517f08c379a000000000000000000000000000000000000000000000000000000000815260040161041590611d1d565b60405180910390fd5b60006001858154811061043457610433611d3d565b5b906000526020600020906002020190508060405180604001604052908160008201805461046090611ca0565b80601f016020809104026020016040519081016040528092919081815260200182805461048c90611ca0565b80156104d95780601f106104ae576101008083540402835291602001916104d9565b820191906000526020600020905b8154815290600101906020018083116104bc57829003601f168201915b505050505081526020016001820160009054906101000a900461ffff1661ffff1661ffff16815250509350505050919050565b610514610ef7565b8060008161ffff161161055c576040517f08c379a000000000000000000000000000000000000000000000000000000000815260040161055390611db8565b60405180910390fd5b8260008151036105a1576040517f08c379a000000000000000000000000000000000000000000000000000000000815260040161059890611e24565b60405180910390fd5b6000806003866040516105b49190611e80565b908152602001604051809103902060000180546105d090611ca0565b90501190506000600260006105e488610f75565b815260200190815260200160002054905081156106815760006001828154811061061157610610611d3d565b5b9060005260206000209060020201905061062b8287610fa5565b7ff9b1d9170fbe32752353e00d62e5276b143166c75aa974030dddfac2895601fe82826000018360010160009054906101000a900461ffff1660405161067393929190611f7a565b60405180910390a1506106d5565b60018054905090506106996001805490508787610fe9565b7fcca07c742c5274e8b72111ba69566aa4442450bfc50bd897ea38d0170d1accfc8187876040516106cc93929190611fb8565b60405180910390a15b505050505050565b60008060149054906101000a900460ff16905090565b6106fb610ef7565b61070560006110f4565b565b80600180549050808210610750576040517f08c379a000000000000000000000000000000000000000000000000000000000815260040161074790611d1d565b60405180910390fd5b600033905061075f84826111b8565b60006001858154811061077557610774611d3d565b5b9060005260206000209060020201905080600101600081819054906101000a900461ffff16809291906107a790612025565b91906101000a81548161ffff021916908361ffff160217905550507f21b68a0c4ac2beb4bede4a50169cdeeeaff19097e416463da0524864702ffe44856040516107f1919061204f565b60405180910390a15050505050565b6001818154811061081057600080fd5b906000526020600020906002020160009150905080600001805461083390611ca0565b80601f016020809104026020016040519081016040528092919081815260200182805461085f90611ca0565b80156108ac5780601f10610881576101008083540402835291602001916108ac565b820191906000526020600020905b81548152906001019060200180831161088f57829003601f168201915b5050505050908060010160009054906101000a900461ffff16905082565b600181815481106108de576108dd611d3d565b5b906000526020600020906002020160010160009054906101000a900461ffff1660008161ffff1611610945576040517f08c379a000000000000000000000000000000000000000000000000000000000815260040161093c90611db8565b60405180910390fd5b8160018054905080821061098e576040517f08c379a000000000000000000000000000000000000000000000000000000000815260040161098590611d1d565b60405180910390fd5b60003390506000600186815481106109a9576109a8611d3d565b5b9060005260206000209060020201905060006109c58784611349565b90508015610a08576040517f08c379a00000000000000000000000000000000000000000000000000000000081526004016109ff906120dc565b60405180910390fd5b610a1287846113a6565b81600101600081819054906101000a900461ffff1680929190610a34906120fc565b91906101000a81548161ffff021916908361ffff160217905550507f60751e87ab3312710ec7d4da85ea804d0813ca2cb843a75cc23c672e1bd3954a8784604051610a80929190612125565b60405180910390a150505050505050565b60008060009054906101000a900473ffffffffffffffffffffffffffffffffffffffff16905090565b610ac2610ef7565b81600180549050808210610b0b576040517f08c379a0000000000000000000000000000000000000000000000000000000008152600401610b0290611d1d565b60405180910390fd5b610b158484610fa5565b600060018581548110610b2b57610b2a611d3d565b5b906000526020600020906002020190507ff9b1d9170fbe32752353e00d62e5276b143166c75aa974030dddfac2895601fe85826000018360010160009054906101000a900461ffff16604051610b8393929190611f7a565b60405180910390a15050505050565b610b9a6114bb565b816000815103610bdf576040517f08c379a0000000000000000000000000000000000000000000000000000000008152600401610bd690611e24565b60405180910390fd5b600080600385604051610bf29190611e80565b90815260200160405180910390206000018054610c0e90611ca0565b905011905080610c53576040517f08c379a0000000000000000000000000000000000000000000000000000000008152600401610c4a90611d1d565b60405180910390fd5b600060026000610c6287610f75565b8152602001908152602001600020549050600060018281548110610c8957610c88611d3d565b5b9060005260206000209060020201905080604051806040016040529081600082018054610cb590611ca0565b80601f0160208091040260200160405190810160405280929190818152602001828054610ce190611ca0565b8015610d2e5780601f10610d0357610100808354040283529160200191610d2e565b820191906000526020600020905b815481529060010190602001808311610d1157829003601f168201915b505050505081526020016001820160009054906101000a900461ffff1661ffff1661ffff1681525050945050505050919050565b606081600180549050808210610dad576040517f08c379a0000000000000000000000000000000000000000000000000000000008152600401610da490611d1d565b60405180910390fd5b60056000858152602001908152602001600020805480602002602001604051908101604052809291908181526020018280548015610e4057602002820191906000526020600020905b8160009054906101000a900473ffffffffffffffffffffffffffffffffffffffff1673ffffffffffffffffffffffffffffffffffffffff1681526020019060010190808311610df6575b505050505092505050919050565b610e56610ef7565b600073ffffffffffffffffffffffffffffffffffffffff168173ffffffffffffffffffffffffffffffffffffffff1603610ec5576040517f08c379a0000000000000000000000000000000000000000000000000000000008152600401610ebc906121c0565b60405180910390fd5b610ece816110f4565b50565b610ed9610ef7565b80600060146101000a81548160ff021916908360ff16021790555050565b610eff611479565b73ffffffffffffffffffffffffffffffffffffffff16610f1d610a91565b73ffffffffffffffffffffffffffffffffffffffff1614610f73576040517f08c379a0000000000000000000000000000000000000000000000000000000008152600401610f6a9061222c565b60405180910390fd5b565b600081604051602001610f889190611e80565b604051602081830303815290604052805190602001209050919050565b8060018381548110610fba57610fb9611d3d565b5b906000526020600020906002020160010160006101000a81548161ffff021916908361ffff1602179055505050565b600060405180604001604052808481526020018361ffff168152509050600061101184610f75565b90508460026000838152602001908152602001600020819055506001829080600181540180825580915050600190039060005260206000209060020201600090919091909150600082015181600001908161106c91906123d9565b5060208201518160010160006101000a81548161ffff021916908361ffff1602179055505050816003856040516110a39190611e80565b908152602001604051809103902060008201518160000190816110c691906123d9565b5060208201518160010160006101000a81548161ffff021916908361ffff1602179055509050505050505050565b60008060009054906101000a900473ffffffffffffffffffffffffffffffffffffffff169050816000806101000a81548173ffffffffffffffffffffffffffffffffffffffff021916908373ffffffffffffffffffffffffffffffffffffffff1602179055508173ffffffffffffffffffffffffffffffffffffffff168173ffffffffffffffffffffffffffffffffffffffff167f8be0079c531659141344cd1fd0a4f28419497f9722a3daafe3b4186f6b6457e060405160405180910390a35050565b600080600460008473ffffffffffffffffffffffffffffffffffffffff1673ffffffffffffffffffffffffffffffffffffffff16815260200190815260200160002060008581526020019081526020016000205414159050600061126b600460008573ffffffffffffffffffffffffffffffffffffffff1673ffffffffffffffffffffffffffffffffffffffff168152602001908152602001600020600086815260200190815260200160002054611481565b9050806112ad576040517f08c379a00000000000000000000000000000000000000000000000000000000081526004016112a49061251d565b60405180910390fd5b816112ed576040517f08c379a00000000000000000000000000000000000000000000000000000000081526004016112e4906125af565b60405180910390fd5b6000600460008573ffffffffffffffffffffffffffffffffffffffff1673ffffffffffffffffffffffffffffffffffffffff16815260200190815260200160002060008681526020019081526020016000208190555050505050565b600080600460008473ffffffffffffffffffffffffffffffffffffffff1673ffffffffffffffffffffffffffffffffffffffff16815260200190815260200160002060008581526020019081526020016000205411905092915050565b600043905080600460008473ffffffffffffffffffffffffffffffffffffffff1673ffffffffffffffffffffffffffffffffffffffff16815260200190815260200160002060008581526020019081526020016000208190555060056000848152602001908152602001600020829080600181540180825580915050600190039060005260206000200160009091909190916101000a81548173ffffffffffffffffffffffffffffffffffffffff021916908373ffffffffffffffffffffffffffffffffffffffff160217905550505050565b600033905090565b600043600060149054906101000a900460ff1660ff16836114a291906125cf565b11156114b157600190506114b6565b600090505b919050565b604051806040016040528060608152602001600061ffff1681525090565b600081519050919050565b600082825260208201905092915050565b6000819050602082019050919050565b600081519050919050565b600082825260208201905092915050565b60005b8381101561153f578082015181840152602081019050611524565b60008484015250505050565b6000601f19601f8301169050919050565b600061156782611505565b6115718185611510565b9350611581818560208601611521565b61158a8161154b565b840191505092915050565b600061ffff82169050919050565b6115ac81611595565b82525050565b600060408301600083015184820360008601526115cf828261155c565b91505060208301516115e460208601826115a3565b508091505092915050565b60006115fb83836115b2565b905092915050565b6000602082019050919050565b600061161b826114d9565b61162581856114e4565b935083602082028501611637856114f5565b8060005b85811015611673578484038952815161165485826115ef565b945061165f83611603565b925060208a0199505060018101905061163b565b50829750879550505050505092915050565b6000602082019050818103600083015261169f8184611610565b905092915050565b6000604051905090565b600080fd5b600080fd5b6000819050919050565b6116ce816116bb565b81146116d957600080fd5b50565b6000813590506116eb816116c5565b92915050565b600060208284031215611707576117066116b1565b5b6000611715848285016116dc565b91505092915050565b6000604083016000830151848203600086015261173b828261155c565b915050602083015161175060208601826115a3565b508091505092915050565b60006020820190508181036000830152611775818461171e565b905092915050565b600080fd5b600080fd5b7f4e487b7100000000000000000000000000000000000000000000000000000000600052604160045260246000fd5b6117bf8261154b565b810181811067ffffffffffffffff821117156117de576117dd611787565b5b80604052505050565b60006117f16116a7565b90506117fd82826117b6565b919050565b600067ffffffffffffffff82111561181d5761181c611787565b5b6118268261154b565b9050602081019050919050565b82818337600083830152505050565b600061185561185084611802565b6117e7565b90508281526020810184848401111561187157611870611782565b5b61187c848285611833565b509392505050565b600082601f8301126118995761189861177d565b5b81356118a9848260208601611842565b91505092915050565b6118bb81611595565b81146118c657600080fd5b50565b6000813590506118d8816118b2565b92915050565b600080604083850312156118f5576118f46116b1565b5b600083013567ffffffffffffffff811115611913576119126116b6565b5b61191f85828601611884565b9250506020611930858286016118c9565b9150509250929050565b600060ff82169050919050565b6119508161193a565b82525050565b600060208201905061196b6000830184611947565b92915050565b600082825260208201905092915050565b600061198d82611505565b6119978185611971565b93506119a7818560208601611521565b6119b08161154b565b840191505092915050565b6119c481611595565b82525050565b600060408201905081810360008301526119e48185611982565b90506119f360208301846119bb565b9392505050565b600073ffffffffffffffffffffffffffffffffffffffff82169050919050565b6000611a25826119fa565b9050919050565b611a3581611a1a565b82525050565b6000602082019050611a506000830184611a2c565b92915050565b60008060408385031215611a6d57611a6c6116b1565b5b6000611a7b858286016116dc565b9250506020611a8c858286016118c9565b9150509250929050565b600060208284031215611aac57611aab6116b1565b5b600082013567ffffffffffffffff811115611aca57611ac96116b6565b5b611ad684828501611884565b91505092915050565b600081519050919050565b600082825260208201905092915050565b6000819050602082019050919050565b611b1481611a1a565b82525050565b6000611b268383611b0b565b60208301905092915050565b6000602082019050919050565b6000611b4a82611adf565b611b548185611aea565b9350611b5f83611afb565b8060005b83811015611b90578151611b778882611b1a565b9750611b8283611b32565b925050600181019050611b63565b5085935050505092915050565b60006020820190508181036000830152611bb78184611b3f565b905092915050565b611bc881611a1a565b8114611bd357600080fd5b50565b600081359050611be581611bbf565b92915050565b600060208284031215611c0157611c006116b1565b5b6000611c0f84828501611bd6565b91505092915050565b611c218161193a565b8114611c2c57600080fd5b50565b600081359050611c3e81611c18565b92915050565b600060208284031215611c5a57611c596116b1565b5b6000611c6884828501611c2f565b91505092915050565b7f4e487b7100000000000000000000000000000000000000000000000000000000600052602260045260246000fd5b60006002820490506001821680611cb857607f821691505b602082108103611ccb57611cca611c71565b5b50919050565b7f546869732070726f6475637420646f6573206e6f742065786973742100000000600082015250565b6000611d07601c83611971565b9150611d1282611cd1565b602082019050919050565b60006020820190508181036000830152611d3681611cfa565b9050919050565b7f4e487b7100000000000000000000000000000000000000000000000000000000600052603260045260246000fd5b7f5175616e746974792063616e2774206265203021000000000000000000000000600082015250565b6000611da2601483611971565b9150611dad82611d6c565b602082019050919050565b60006020820190508181036000830152611dd181611d95565b9050919050565b7f596f75206861766520746f20656e7465722061206e616d652100000000000000600082015250565b6000611e0e601983611971565b9150611e1982611dd8565b602082019050919050565b60006020820190508181036000830152611e3d81611e01565b9050919050565b600081905092915050565b6000611e5a82611505565b611e648185611e44565b9350611e74818560208601611521565b80840191505092915050565b6000611e8c8284611e4f565b915081905092915050565b611ea0816116bb565b82525050565b60008190508160005260206000209050919050565b60008154611ec881611ca0565b611ed28186611971565b94506001821660008114611eed5760018114611f0357611f36565b60ff198316865281151560200286019350611f36565b611f0c85611ea6565b60005b83811015611f2e57815481890152600182019150602081019050611f0f565b808801955050505b50505092915050565b6000819050919050565b6000611f64611f5f611f5a84611595565b611f3f565b6116bb565b9050919050565b611f7481611f49565b82525050565b6000606082019050611f8f6000830186611e97565b8181036020830152611fa18185611ebb565b9050611fb06040830184611f6b565b949350505050565b6000606082019050611fcd6000830186611e97565b8181036020830152611fdf8185611982565b9050611fee6040830184611f6b565b949350505050565b7f4e487b7100000000000000000000000000000000000000000000000000000000600052601160045260246000fd5b600061203082611595565b915061ffff820361204457612043611ff6565b5b600182019050919050565b60006020820190506120646000830184611e97565b92915050565b7f596f752063616e6e6f7420627579207468652073616d652070726f647563742060008201527f6d6f7265207468616e206f6e6365210000000000000000000000000000000000602082015250565b60006120c6602f83611971565b91506120d18261206a565b604082019050919050565b600060208201905081810360008301526120f5816120b9565b9050919050565b600061210782611595565b91506000820361211a57612119611ff6565b5b600182039050919050565b600060408201905061213a6000830185611e97565b6121476020830184611a2c565b9392505050565b7f4f776e61626c653a206e6577206f776e657220697320746865207a65726f206160008201527f6464726573730000000000000000000000000000000000000000000000000000602082015250565b60006121aa602683611971565b91506121b58261214e565b604082019050919050565b600060208201905081810360008301526121d98161219d565b9050919050565b7f4f776e61626c653a2063616c6c6572206973206e6f7420746865206f776e6572600082015250565b6000612216602083611971565b9150612221826121e0565b602082019050919050565b6000602082019050818103600083015261224581612209565b9050919050565b60006020601f8301049050919050565b600082821b905092915050565b6000600883026122997fffffffffffffffffffffffffffffffffffffffffffffffffffffffffffffffff8261225c565b6122a3868361225c565b95508019841693508086168417925050509392505050565b60006122d66122d16122cc846116bb565b611f3f565b6116bb565b9050919050565b6000819050919050565b6122f0836122bb565b6123046122fc826122dd565b848454612269565b825550505050565b600090565b61231961230c565b6123248184846122e7565b505050565b5b818110156123485761233d600082612311565b60018101905061232a565b5050565b601f82111561238d5761235e81611ea6565b6123678461224c565b81016020851015612376578190505b61238a6123828561224c565b830182612329565b50505b505050565b600082821c905092915050565b60006123b060001984600802612392565b1980831691505092915050565b60006123c9838361239f565b9150826002028217905092915050565b6123e282611505565b67ffffffffffffffff8111156123fb576123fa611787565b5b6124058254611ca0565b61241082828561234c565b600060209050601f8311600181146124435760008415612431578287015190505b61243b85826123bd565b8655506124a3565b601f19841661245186611ea6565b60005b8281101561247957848901518255600182019150602085019450602081019050612454565b868310156124965784890151612492601f89168261239f565b8355505b6001600288020188555050505b505050505050565b7f536f7272792c20796f7572207265717565737420666f7220726566756e64206860008201527f6173206265656e2064656e6965642e0000000000000000000000000000000000602082015250565b6000612507602f83611971565b9150612512826124ab565b604082019050919050565b60006020820190508181036000830152612536816124fa565b9050919050565b7f596f7527766520616c72656164792072657475726e656420796f75722070726f60008201527f64756374206f72206469646e2774206576656e20626f756768742069742e0000602082015250565b6000612599603e83611971565b91506125a48261253d565b604082019050919050565b600060208201905081810360008301526125c88161258c565b9050919050565b60006125da826116bb565b91506125e5836116bb565b92508282019050808211156125fd576125fc611ff6565b5b9291505056fea2646970667358221220b4db30bf7652f172732307a36a5adbea2a55dc2bc3b0d7acce60aa92165d009264736f6c63430008120033",
  "linkReferences": {},
  "deployedLinkReferences": {}
}